:060000000A128A110C280F
:10000800FE00030EF1000A08F2000A128A11E9281C
:100018000A128A110F28F701F801F90183010A125F
:100028008A116129A3288312031305108316031369
:100038000514831603170814D42883120313851094
:10004800831603138514831603178814D428831280
:1000580003130511831603130515831603170815D3
:10006800D428831203138511831603138515831669
:1000780003178815D42883120313851283160313D4
:100088008516831603170816D4288312031309103C
:10009800831603130914831603178816D4288312AA
:1000A800031389108316031389148316031708177B
:1000B800D428831203130911831603130915831611
:1000C80003178817D4288312031306118316031302
:1000D8000615831603170914D428831203138611EF
:1000E800831603138615831603178914D4288312DD
:1000F8000313861083160313861483160317091532
:10010800D4288312031306128316031306168316C4
:1001180003178915D42883120313061083160313B3
:100128000614831603170916D4288312031386129C
:10013800831603138616831603178916D4287408A2
:10014800003A0319A828D4287308003A0319172875
:10015800013A03192128033A03192B28013A0319F4
:100168003528073A03193F28013A03194928033A61
:1001780003195328013A03195D280F3A0319672810
:10018800013A03197128033A03197B28013A031924
:100198008528073A03198F28013A03199928D42882
:1001A800831203139F131F171F083F3940389F00FE
:1001B800831603139F121F129F13831203131F1416
:1001C8002130F500F50BE6280800831203138C1D77
:1001D800EE28EF283F291412141BF328F428F828D6
:1001E800941FF728F828FD281308F900141394130E
:1001F800141683160313941A022903291D291419A6
:10020800062907291D29831203131308F9008C11E5
:10021800141683160313141C122913290D2983128B
:10022800031313088800A630F000F00B192900000A
:100238003C29941A202921293C29141D24292529DF
:100248003C29831203131308F900831603131410AF
:1002580077088312031393001416A630F000F00BEE
:10026800332900008316031314183B293C29362927
:10027800831203138C1172088A00710E8300FE0E1C
:100288007E0E09008316031788018901831603135C
:100298008601880183120313860188010030F30068
:1002A800F4000A128A1116200A128A1150300A1212
:1002B8008A117B210A128A1108000A128A11462122
:1002C8000A128A110A128A1195210A128A117308D0
:1002D800F700823083120313A300DD30A200A20BC3
:1002E8007329A30B732966290A128A110C28F300B3
:1002F8007308831603139300363083120313940094
:100308008030831603139400013091008715071677
:100318008B170B17831203138C11831603138C1579
:100328000800831203139F149F189B299C2998295E
:100338000C131E08F500F6017508A0007608A10048
:0A0348002108F4002008F30008006B
:08400000FF3FFF3FFF3FFF3FC0
:04400E00D420FF3F7C
:00000001FF
