:060000000A128A110C280F
:10000800FE00030EF0000A08F1000A128A15D12F2B
:100018000A128A110F2883133F30840055300A12C0
:100028008A158A270A128A1183010A128A111C2842
:100038000A128A11CB260A128A110A128A15C427B3
:100048000A128A11831203134103031D2C282D2839
:100058004D2A861830283128462803308312031386
:10006800AF000830AE007630AD00AD0B3928AE0BCE
:100078003928AF0B39280000013083120313AD0073
:100088002D08C007061949284A285F28033083121B
:100098000313AF000830AE007630AD00AD0B522828
:1000A800AE0B5228AF0B5228000001308312031305
:1000B800AD002D08BF07861962286328762803300B
:1000C80083120313AF000830AE007630AD00AD0BDD
:1000D8006B28AE0B6B28AF0B6B2800000130831226
:1000E8000313BF024003031D7A287B28C0283C3035
:1000F8003F02031C802881288228BF013F08D300C3
:100108000A30F2000030F3005308AD00AE012D08AC
:10011800F4002E08F5000A128A11BC250A128A1169
:10012800720883120313D2000A30A0000030A10025
:100138005308AD00AE012D08A2002E08A3000A1234
:100148008A1123260A128A11831203132008D10068
:100158005208AD0003300310AD0DFF3E031DAF285C
:1001680003102D0D5104D3005308F40000300A1277
:100178008A113E270A128A1102308312031340069D
:10018800031DC728C8280D293C303F02031CCD2871
:10019800CE28CF28BF013F08D0000A30F200003037
:1001A800F3005008AD00AE012D08F4002E08F5004C
:1001B8000A128A11BC250A128A11720883120313C3
:1001C800CF000A30A0000030A1005008AD00AE01F9
:1001D8002D08A2002E08A3000A128A1123260A124B
:1001E8008A11831203132008CE004F08AD00033094
:1001F8000310AD0DFF3E031DFC2803102D0D4E040A
:10020800D0005008F40001300A128A113E270A1261
:100218008A110330831203134006031D142915297C
:100228005A2918303F02031C1A291B291C29BF010F
:100238003F08CD000A30F2000030F3004D08AD0051
:10024800AE012D08F4002E08F5000A128A11BC250B
:100258000A128A11720883120313CC000A30A00014
:100268000030A1004D08AD00AE012D08A2002E08F7
:10027800A3000A128A1123260A128A118312031371
:100288002008CB004C08AD0003300310AD0DFF3E35
:10029800031D492903102D0D4B04CD004D08F40012
:1002A80002300A128A113E270A128A110430831278
:1002B80003134006031D61296229A72920303F0244
:1002C800031C672968296929BF013F08CA000A3049
:1002D800F2000030F3004A08AD00AE012D08F4002A
:1002E8002E08F5000A128A11BC250A128A11720812
:1002F80083120313C9000A30A0000030A1004A0885
:10030800AD00AE012D08A2002E08A3000A128A1122
:1003180023260A128A11831203132008C8004908E9
:10032800AD0003300310AD0DFF3E031D96290310E9
:100338002D0D4804CA004A08F40004300A128A1134
:100348003E270A128A110530831203134006031D43
:10035800AE29AF29F4290D303F02031CB429B52971
:10036800B629BF013F08C7000A30F2000030F30089
:100378004708AD00AE012D08F4002E08F5000A125A
:100388008A11BC250A128A11720883120313C60047
:100398000A30A0000030A1004708AD00AE012D08CA
:1003A800A2002E08A3000A128A1123260A128A1113
:1003B800831203132008C5004608AD00033003105C
:1003C800AD0DFF3E031DE32903102D0D4504C700A5
:1003D8004708F40005300A128A113E270A128A11CA
:1003E8000630831203134006031DFB29FC29412A0A
:1003F80064303F02031C012A022A032ABF013F0876
:10040800C4000A30F2000030F3004408AD00AE0129
:100418002D08F4002E08F5000A128A11BC250A12CC
:100428008A11720883120313C3000A30A000003037
:10043800A1004408AD00AE012D08A2002E08A300BB
:100448000A128A1123260A128A118312031320081A
:10045800C2004308AD0003300310AD0DFF3E031D7D
:10046800302A03102D0D4204C4004408F40006305D
:100478000A128A113E270A128A11073083120313BF
:100488004006031D482A492A4D2AC001BF01C1015F
:1004980009100A128A159B270A128A115130F20094
:1004A8000030F3000A128A15AD270A128A110030AB
:1004B800F200F3000A128A1174270A128A117208CC
:1004C80083120313D4000A128A15A4270A128A1168
:1004D8000A128A159B270A128A11D030F2000030BE
:1004E800F3000A128A15AD270A128A110030F200A9
:1004F800F3000A128A15AD270A128A110A128A1500
:1005080092270A128A11D130F2000030F3000A1241
:100518008A15AD270A128A110030F200F3000A1278
:100528008A1174270A128A11720883120313D300DE
:100538000A128A15A4270A128A1183120313530870
:10054800AD0004300310AD0CFF3E031DA62A2D0894
:100558000F39D20053080F39D1000A128A159B2788
:100568000A128A11D030F2000030F3000A128A15FC
:10057800AD270A128A110130F2000030F3000A1286
:100588008A15AD270A128A110A128A1592270A12A9
:100598008A11D130F2000030F3000A128A15AD2713
:1005A8000A128A110030F200F3000A128A11742725
:1005B8000A128A11720883120313D0000A128A15CC
:1005C800A4270A128A11831203135008AD000430BD
:1005D8000310AD0CFF3E031DEC2A2D080F39CF0088
:1005E80050080F39CE000A128A159B270A128A1161
:1005F800D030F2000030F3000A128A15AD270A1233
:100608008A110230F2000030F3000A128A15AD2771
:100618000A128A110A128A1592270A128A11D130EF
:10062800F2000030F3000A128A15AD270A128A1167
:100638000030F200F3000A128A1174270A128A1194
:10064800720883120313CD000A128A15A4270A120E
:100658008A11831203134D08AD0004300310AD0C4A
:10066800FF3E031D322B2D080F39CC004D080F39E2
:10067800CB000A128A159B270A128A11D030F20081
:100688000030F3000A128A15AD270A128A110430C5
:10069800F2000030F3000A128A15AD270A128A11F7
:1006A8000A128A1592270A128A11D130F2000030F4
:1006B800F3000A128A15AD270A128A110030F200D7
:1006C800F3000A128A1174270A128A117208831217
:1006D8000313CA000A128A15A4270A128A11831260
:1006E80003134A08AD0004300310AD0CFF3E031D90
:1006F800782B2D080F39C9004A080F39C8000A128B
:100708008A159B270A128A11D030F2000030F300B4
:100718000A128A15AD270A128A110530F200003034
:10072800F3000A128A15AD270A128A110A128A15CD
:1007380092270A128A11D130F2000030F3000A120F
:100748008A15AD270A128A110030F200F3000A1246
:100758008A1174270A128A11720883120313C700B8
:100768000A128A15A4270A128A118312031347084A
:10077800AD0004300310AD0CFF3E031DBE2B2D0849
:100788000F39C60047080F39C5000A128A159B277A
:100798000A128A11D030F2000030F3000A128A15CA
:1007A800AD270A128A110630F2000030F3000A124F
:1007B8008A15AD270A128A110A128A1592270A1277
:1007C8008A11D130F2000030F3000A128A15AD27E1
:1007D8000A128A110030F200F3000A128A117427F3
:1007E8000A128A11720883120313C4000A128A15A6
:1007F800A4270A128A11831203134408AD00043097
:100808000310AD0CFF3E031D042C2D080F39C30047
:1008180044080F39C2006430F2000030F300540875
:10082800AD00AE012D08F4002E08F5000A128A1159
:10083800BC250A128A117208303E83120313BC00C9
:100848000A30A0000030A1000A30F2000030F300A6
:100858005408AD00AE012D08F4002E08F5000A1268
:100868008A11BC250A128A11730883120313A30084
:100878007208A2000A128A1123260A128A11831208
:1008880003132008303EBD000A30A0000030A1004C
:100898005408AD00AE012D08A2002E08A3000A12CC
:1008A8008A1123260A128A11831203132008303E64
:1008B800BE00F601F60A01300A128A11C7270A1289
:1008C8008A1101300A128A11A2270A128A11F60126
:1008D800F60A02300A128A11C7270A128A118312ED
:1008E80003133C080A128A11E7270A128A11831295
:1008F80003133D080A128A11E7270A128A11831284
:1009080003133E080A128A11E7270A128A11831272
:1009180003135108303EB0005208303EB1004E0873
:10092800303EB2004F08303EB3004B08303EB400B2
:100938004C08303EB5004808303EB6004908303E05
:10094800B7004508303EB8004608303EB9004208B6
:10095800303EBA004308303EBB000630F600013096
:100968000A128A11C7270A128A1183120313370839
:100978000A128A11E7270A128A118312031336080A
:100988000A128A11E7270A128A112F300A128A11CD
:10099800E7270A128A118312031339080A128A11E7
:1009A800E7270A128A118312031338080A128A11D8
:1009B800E7270A128A112F300A128A11E7270A122A
:1009C8008A1132300A128A11E7270A128A11303046
:1009D8000A128A11E7270A128A11831203133B08A5
:1009E8000A128A11E7270A128A11831203133A0896
:1009F8000A128A11E7270A128A110630F600023015
:100A08000A128A11C7270A128A118312031335089A
:100A18000A128A11E7270A128A118312031334086B
:100A28000A128A11E7270A128A113A300A128A1121
:100A3800E7270A128A118312031333080A128A114C
:100A4800E7270A128A118312031332080A128A113D
:100A5800E7270A128A113A300A128A11E7270A127E
:100A68008A118312031331080A128A11E7270A121E
:100A78008A118312031330080A128A11E7270A120F
:100A88008A118F3083120313AE00D930AD00AD0B3D
:100A98004B2DAE0B4B2D502D26280A128A110C28EF
:100AA800003083120313A3000030A2000030A1001D
:100AB8000030A00075087404730472040319652DCE
:100AC800662DB32DA401A40A762D0130FA00031077
:100AD800F20DF30DF40DF50DFA0B6B2D0130FA0044
:100AE8007A08A407F51F792D7A2D692D0130FA00AF
:100AF8000310A00DA10DA20DA30DFA0B7C2D7508F6
:100B08007902031D912D74087802031D912D730835
:100B18007702031D912D72087602031C942D952DE2
:100B2800A42D7208F6027308031C730FF7027408E9
:100B3800031C740FF8027508031C750FF9022014C2
:100B480001300310F50CF40CF30CF20CFF3E031DFE
:100B5800A52D0130A402031DB22DB32D7A2D230833
:100B6800F5002208F4002108F3002008F20008002C
:100B7800F801F31FC02DC12DC82DF209F309F20A9F
:100B88000319F30AF801F80AF51FCB2DCC2DD52D42
:100B9800F409F509F40A0319F50A0130F600760894
:100BA800F806F901FA01720873040319DC2DDD2D2A
:100BB800142EF701F70AEB2D01300310F20DF30D97
:100BC800FF3E031DE12D0130F6007608F707F31FFD
:100BD800EE2DEF2DE02D01300310F90DFA0DFF3E3B
:100BE800031DF02D73087502031DFC2D7208740295
:100BF800031CFF2D002E072E7208F4027308031C35
:100C0800F503F502791401300310F30CF20CFF3EE2
:100C1800031D082E0130F702031D132E142EEF2D8D
:100C280078080319182E192E1E2EF909FA09F90A3F
:100C38000319FA0A7A08F3007908F2000800831207
:100C48000313A501A31F292E2A2E312EA209A309B9
:100C5800A20A0319A30AA501A50AA11F342E352E3D
:100C68003A2EA009A109A00A0319A10A2008210403
:100C780003193F2E402E6F2EA401A40A4E2E0130D8
:100C88000310A00DA10DFF3E031D442E0130FB00F3
:100C98007B08A407A11F512E522E432E21082302A0
:100CA800031D582E20082202031C5B2E5C2E622E88
:100CB8002008A2022108031CA303A3020130031089
:100CC800A10CA00CFF3E031D632E0130A402031DDE
:100CD8006E2E6F2E522E25080319732E742E792E20
:100CE800A209A309A20A0319A30A2308A10022083A
:100CF800A000080000300A128A1584270A128A11F7
:100D08002730F700F530F600F60B882EF70B882E03
:100D180030300A128A15E6270A128A110B30F700BA
:100D28006230F600F60B962EF70B962E0000303048
:100D38000A128A15E6270A128A114230F600F60BC3
:100D4800A32E000030300A128A15E6270A128A11EB
:100D580038300A128A15E6270A128A1100300A1258
:100D68008A15E6270A128A110C300A128A15E62714
:100D78000A128A1100300A128A15E6270A128A1105
:100D880006300A128A15E6270A128A110800831605
:100D98000317880189010F30831603138600880121
:100DA80083120313860188018316031389018312B2
:100DB800031309107030831603138F040F140A12DB
:100DC8008A117E260A128A11003083120313A800A2
:100DD8000130A7008630A600A030A5000A128A11AB
:100DE80006270A128A118B178B150B10831603130B
:100DF80081131614151496149514161515159615B1
:100E080095150800283083120313940083160313E2
:100E18009101831203132508A9002608AA002708B0
:100E2800AB002808AC0002300310A90DAA0DAB0DC9
:100E3800AC0DFF3E031D182F2C08F5002B08F400FD
:100E48002A08F3002908F2000030F9007A30F80087
:100E58001230F7000030F6000A128A1154250A12DF
:100E68008A117208FF3E83160313930094018715B5
:100E780007160800F7000A128A159B270A128A111A
:100E8800D030F2000030F3000A128A15AD270A129A
:100E98008A117708F500F6017508F2007608F30064
:100EA8000A128A15AD270A128A117408F500F6018C
:100EB8007508F2007608F3000A128A15AD270A129F
:100EC8008A110A128A15A4270A128A111A30F60002
:100ED800F830F500F50B6E2FF60B6E2F00000800AA
:100EE8000A128A15B7270A128A1183160313911555
:100EF8000A128A15B7270A128A11831203131308D4
:100F0800F400F5017408F6007508F7000A128A154E
:100F1800B7270A128A1172037304031D942F952FA1
:100F2800992F8316031391129C2F8316031391167E
:100F380011167708F3007608F2000800F700F501AB
:100F4800F601B92F7508770784000A128A15002060
:100F58000A128A110A128A11E7270A128A11013025
:100F6800F5070318F60A0030F607750877078400B6
:100F78000A128A1500200A128A11003A031DC52F89
:100F8800C62FA62F0800F7007703031DCC2FCD2FFF
:100F9800D72F76087F3EF80078080A128A15E627C8
:100FA8000A128A11E62F02307706031DDC2FDD2F87
:100FB800E62F7608BF3EF80078080A128A15E62759
:100FC8000A128A110800F4008312031389147408A2
:100FD8000A128A1584270A128A1183120313091523
:100FE8001A30F300F30BF62F0000831203130911D4
:020FF8000800EF
:1010000008308A000408840A8207003453343134DB
:041010003A3400343A
:101F0800F20072088312031388000800640080013D
:101F1800840A04060319003404068B2F0A128A1552
:101F2800B7270A128A1583160313911408000A1298
:101F38008A15B7270A128A15831603131114080085
:101F48000A128A15B7270A128A1583160313111560
:101F580008000A128A15B7270A128A15720883120E
:101F6800031393000800831603131419BC2FBD2F05
:101F7800B72F11081F39031DC22FC32FB72F080011
:101F880000300A128A15E6270A128A1501300A1249
:101F98008A15E6270A128A1508000B1CD42FD52F9C
:101FA800DF2F831203130618DA2FDB2FDE2FC10170
:101FB800C10A09140B1071088A00700E8300FE0E06
:101FC8007E0E0900F50083120313891075080A12A2
:101FD8008A1584270A128A158312031309150B30F0
:101FE800F4006230F300F30BF72FF40BF72F000027
:081FF800831203130911080014
:08400000FF3FFF3FFF3FFF3FC0
:04400E00D420FF3F7C
:00000001FF
